:100000000428FF3FFF3FFF3F03138316880183123D
:100010008801333083169900181534204F2070085A
:100020000319222844207008A0007008A100242091
:100030002008613A031D1D2808142008623A031D98
:10004000222808100E28232800300313831698183E
:100050000130F1007108003A031D30280000242807
:100060008312210899000800031383169816903014
:100070008312980083168717071383128C1E432858
:100080001A08A5003D280800031383121A08A100CE
:10009000981C4C28181218162108F000080000308F
:1000A000031383128C1A0130F1007108F00008006C
:02400E007A3FF7
:00000001FF
